:1000000045C0000062C0000060C000005EC000008B
:100010005CC000005AC0000058C0000056C000007C
:1000200054C0000052C0000050C000004EC000008C
:100030004CC000004AC0000048C000003AC10000A7
:1000400044C0000042C0000040C000003EC00000AC
:100050003CC000003AC0000038C0000036C00000BC
:1000600034C0000032C0000030C000002EC00000CC
:100070002CC000002AC0000028C0000026C00000DC
:1000800024C0000022C0000020C0000011241FBEB8
:10009000CFEFD0E4DEBFCDBF19E0A0E0B1E0E8E7EC
:1000A000FAE100E00BBF02C007900D92A636B1073F
:1000B000D9F72AE0A6E6B9E001C01D92A333B20742
:1000C000E1F70E945A0B0C943A0D9ACF8F929F92AF
:1000D000BF92CF92DF92EF92FF920F931F93CF9335
:1000E000DF9300D000D0CDB7DEB789836B014A83A0
:1000F0002B83EC8280E793E00E94490CE1ECF0E076
:1001000080818061808340E050E020E030E0E0ECDE
:10011000F0E00F2EF6EC8F2E912CF02DBB24B39433
:10012000E12CF12C90E080818823ECF7D4018C91B4
:10013000833229F44130510509F0A5C005C02F3F95
:10014000B1E03B070CF488C0E1ECF0E080818F7EE9
:100150008083F601E20FF31F1082F6010190002068
:10016000E9F73197EC19FD093A9778F47E0124E01C
:10017000E20EF11C9E012D5F3F4FAE014E5F5F4FBF
:10018000B6018C2F8F5FA2DF84C080916709813018
:1001900009F07FC08C81883809F07BC044E450E0CE
:1001A0006FEC79E08BE699E00E94D60C44E450E0D5
:1001B000B6018FEC99E00E94D60C8BE699E00E9484
:1001C000490C8FEB95E00E94490C8FEC99E00E945E
:1001D000490C8FEB95E00E94490C83E893E00E9464
:1001E000490C80916809805D0E94410C8FEB95E07D
:1001F0000E94490C6FEF83ED90E361508040904086
:10020000E1F700C000006FEC79E08BE699E00E9416
:10021000B80C892B31F4809168098F5F809368094D
:1002200002C0109268098DE893E00E94490C809109
:100230006809893070F180EA93E00E94490CAFEFC1
:10024000B1E12AE7A150B0402040E1F700C0000032
:10025000109268092E981DC04130510541F4B60135
:10026000620F731FDB018C932F5F3F4F5CCF843293
:1002700009F059CF4115510509F055CF4B2D5E2D91
:100280002F2D392F50CF2F3FB1E03B070CF44BCF30
:100290005BCF0F900F900F900F90DF91CF911F9138
:1002A0000F91FF90EF90DF90CF90BF909F908F9035
:1002B00008951F920F920FB60F9211240BB60F9252
:1002C0008F93EF93FF93809169098F5F8A3018F4C1
:1002D000809369090AC01092690981E080936A09D4
:1002E000E1E8F0E080818B7F8083FF91EF918F9137
:1002F0000F900BBE0F900FBE0F901F90189510928D
:100300006A091092850010928400E1E8F0E0808193
:10031000846080830895F3DFE8ECF0E008C08AE1B0
:100320008A95F1F700C080916A09813051F080818F
:100330008823ACF7E1E8F0E080818B7F808381E067
:10034000089580E00895EF92FF920F931F93CF934B
:100350007C01C0E30EEC10E003C0C92F01C0C92F1F
:10036000DADF81110CC08FEA93E00E94490C80EC27
:1003700093E00E94490CC0E00EEC10E007C0F801C9
:100380009081CD3051F79A3051F7F5CFC4DF8823F3
:1003900051F0F8019081F701EC0FF11D90839D3031
:1003A00011F0CF5FF3CFF701EC0FF11D80E091E08A
:1003B0008083E9ECF0E080818F7E8083CF911F9174
:1003C0000F91FF90EF9008950F931F93CF93DF93BA
:1003D000EC018B018881882331F021960E94670C03
:1003E00089918111FBCFE9ECF0E0908190619083DD
:1003F000C801A9DFDF91CF911F910F910895EF926E
:10040000FF920F931F93CF93DF93CDB7DEB7C85CF6
:10041000D1090FB6F894DEBF0FBECDBF7C018B01B2
:1004200081ED93E00E94490C82E091E00E946F0C04
:100430002FEF84E39CE0215080409040E1F700C022
:100440000000BE016F5F7F4F8AE091E0BDDF60E199
:1004500071E0CE0101960E94B80C892B51F08FEA11
:1004600093E00E94490C83EE93E00E94490C80E0E7
:1004700093C183EF93E00E94490C87E094E00E94CF
:10048000490CBE016F5F7F4F84E191E09DDF62E226
:1004900071E0CE0101960E94B80C892B51F08FEAD1
:1004A00093E00E94490C83EE93E00E94490C80E0A7
:1004B00073C18DE194E00E94490C82E394E00E94B4
:1004C000490CBE016F5F7F4F80E391E07DDF6CE3FD
:1004D00071E0CE0101960E94B80C892B91F068E47E
:1004E00071E0CE0101960E94B80C892B51F08FEA81
:1004F00093E00E94490C83EE93E00E94490C80E057
:100500004BC185E594E00E94490CBE016F5F7F4FAF
:1005100084E591E059DF8981823241F0FE01329613
:1005200020E02F5F81918232E1F701C020E091E06D
:10053000920FFE01E90FF11D3181323299F0F8017D
:100540004FE1420F3193892F821B9F5FA1E0B0E002
:10055000AC0FBD1FA90FB11D3C91323221F0941395
:10056000F1CF01C080E0F801E80FF11D108280E7B3
:1005700094E00E94490CC8010E94490C8FEB95E061
:100580000E94490C60E671E0C8010E94B80C892BFA
:10059000B1F487E797E7A7E7B0E0F701808391839D
:1005A000A283B38388E894E00E94490CC7010E94AB
:1005B000490C8FEB95E00E94490C81E0EDC067E6A5
:1005C00071E0C8010E94B80C892B39F061E771E035
:1005D000C8010E949A0C892BB1F487E797E7A7E737
:1005E000B0E0F70180839183A283B38388E894E02D
:1005F0000E94490CC7010E94490C8FEB95E00E94B4
:10060000490C81E0C9C06EE771E0C8010E94B80CD6
:10061000892B39F066E871E0C8010E94B80C892B7B
:10062000A9F48FE0EFE8F4E0D70101900D928A95EC
:10063000E1F788E894E00E94490CC7010E94490C48
:100640008FEB95E00E94490C81E0A6C06EE871E056
:10065000C8010E94B80C892B71F067E971E0C801EC
:100660000E94B80C892B39F06DE971E0C8010E9435
:10067000B80C892BA9F489E0EEE9F4E0D7010190E8
:100680000D928A95E1F788E894E00E94490CC70131
:100690000E94490C8FEB95E00E94490C81E07CC0E0
:1006A00066EA71E0C8010E94B80C892BA9F488E0C1
:1006B000E7EAF4E0D70101900D928A95E1F788E826
:1006C00094E00E94490CC7010E94490C8FEB95E011
:1006D0000E94490C81E060C060EB71E0C8010E949B
:1006E000B80C892BA9F485E1EFEAF4E0D701019079
:1006F0000D928A95E1F788E894E00E94490CC701C1
:100700000E94490C8FEB95E00E94490C81E044C0A7
:1007100066EB71E0C8010E94B80C892BA9F487E050
:10072000E4ECF4E0D70101900D928A95E1F788E8B6
:1007300094E00E94490CC7010E94490C8FEB95E0A0
:100740000E94490C81E028C06EEB71E0C8010E9454
:10075000B80C892B39F064EC71E0C8010E949A0C46
:10076000892BA9F486E0EBECF4E0D70101900D921F
:100770008A95E1F788E894E00E94490CC7010E943D
:10078000490C8FEB95E00E94490C81E005C081ED9A
:1007900094E00E94490C80E0C853DF4F0FB6F894F4
:1007A000DEBF0FBECDBFDF91CF911F910F91FF90A4
:1007B000EF900895CF93DF93CDB7DEB764970FB670
:1007C000F894DEBF0FBECDBFBE016F5F7F4F8AECD6
:1007D00091E0FADD60E171E0CE0101960E94B80C73
:1007E000892B89F4BE016F5F7F4F86ED91E0ECDDD0
:1007F00062EE71E0CE0101960E94B80C21E0892BD7
:1008000019F420E001C020E0822F64960FB6F8941E
:10081000DEBF0FBECDBFDF91CF910895CF93DF93A1
:10082000CDB7DEB764970FB6F894DEBF0FBECDBF6D
:10083000BE016F5F7F4F89EE91E0C6DD2AEA36EE9A
:1008400086E991E02150304080409040D9F7000087
:1008500064960FB6F894DEBF0FBECDBFDF91CF9187
:100860000895CF93DF93CDB7DEB764970FB6F894B2
:10087000DEBF0FBECDBF84EE94E00E94490CBE01E6
:100880006F5F7F4F88EF94E09FDD67EF71E0CE01EF
:1008900001960E94B80C892B71F484E095E0F9D799
:1008A0002FEF81E19AE7215080409040E1F700C0AE
:1008B000000080E016C062E072E0CE0101960E9466
:1008C000B80C892B69F4E9ECF0E0808180618083C9
:1008D0008CE195E0DED7CE01019635DD81E001C0E7
:1008E00080E064960FB6F894DEBF0FBECDBFDF91F7
:1008F000CF9108950F931F93CF93DF93CDB7DEB7BA
:100900002A970FB6F894DEBF0FBECDBF8C0189E2E7
:1009100095E0BFD7BE016F5F7F4F8DE092E054DD61
:100920006BE172E0CE0101960E94B80C892B41F078
:1009300083E495E0AED78BE695E0ABD780E039C095
:100940008CE795E0A6D78EE995E0A3D7C801A1D79B
:100950008FEB95E09ED7E9ECF0E090819061908379
:100960008EEA95E0BCD7C801BAD788EB95E0B7D737
:10097000CE010196E8DC60E171E0CE010196F8D786
:10098000892B41F082EC95E084D78CED95E081D7FE
:1009900080E00FC080EF95E07CD786E096E079D7C5
:1009A00009DF813029F481E296E073D781E001C04C
:1009B00080E02A960FB6F894DEBF0FBECDBFDF9160
:1009C000CF911F910F910895CF93DF93CDB7DEB7ED
:1009D000C05DD1090FB6F894DEBF0FBECDBFBE011A
:1009E000675F7F4F84E292E0EFDCE9ECF0E080812A
:1009F00080618083CE010196A6DC8F858E838889F5
:100A00008C3219F08F83188601C01F82CE010696A2
:100A100074D78A3068F0833669F096EF980F9A3071
:100A200058F09CEE980F9A3048F08F3148F409C086
:100A300080E007C080E005C081E003C082E001C023
:100A400083E0C053DF4F0FB6F894DEBF0FBECDBFBB
:100A5000DF91CF9108952F923F924F925F926F92C4
:100A60007F928F929F92AF92BF92CF92DF92EF923E
:100A7000FF920F931F93CF93DF93CDB7DEB7C1588B
:100A8000D1400FB6F894DEBF0FBECDBFC558DE4FC4
:100A900099838883CB57D140C958DE4F79836883C7
:100AA000C757D140C758DE4F59834883C957D140F3
:100AB00088E496E0EED6BE016F547F4F8EE292E05E
:100AC00083DCE9ECF0E0808180618083CE01815994
:100AD0009E4F39DCCF54DF4F8881C15BD0408A33D1
:100AE00049F0FE01EE54FF4F80E08F5F91919A3301
:100AF000E1F701C080E092E0980FE1EBF0E0EC0F4D
:100B0000FD1FE90FF11D20812C32A9F0AE014F5FCE
:100B10005F4F885FFA0121933E2F341B9F5FA1EB4B
:100B2000B0E0AC0FBD1FA90FB11D2C912C3221F0EC
:100B30009813F1CF01C030E0E1E0F0E0EC0FFD1FD1
:100B4000E30FF11D1082CE010196D7D6CC58DE4FAF
:100B500099838883C457D1408DE696E09AD6CE011A
:100B6000019697D68FEB95E094D6CC58DE4F28812E
:100B70003981C457D140232B09F456C2BE016F54AA
:100B80007F4F8AE896E020DC60E171E0CE018F546F
:100B90009F4FEED6892B09F049C286E996E079D6B7
:100BA000CC58DE4F88819981C457D1401816190658
:100BB0000CF013C26894222421F8312CC358DE4F64
:100BC0001882CD57D140C258DE4F1882CE57D1403F
:100BD000C158DE4F1882CF57D1400EEC10E07E0195
:100BE00097E0E90EF11C5E01EEE9AE0EB11CCA58A9
:100BF000DE4FE882C657D1408F2C3E01FFEC6F0ECE
:100C0000711C2E0120E9421A2EEF520AC3010496EC
:100C1000C058DE4F99838883C058D1404AE0BE0156
:100C20006F5F7F4FC1010197D0D681EC96E057D618
:100C3000CE01019654D68FEB95E051D6E9ECF0E069
:100C40008081806180830F2EF0E3DF2EF02D03C0C2
:100C5000D82E01C0D82E5FDB811107C0CA58DE4FE5
:100C6000C880C657D140D82C08C0F8018081FDE06B
:100C7000DF12EECF8A3071F7F1CF9C2C9E184BDB40
:100C8000882351F0F8018081F60181936F018D3046
:100C900019F0EA15FB0589F7F701E90DF11D20E0D0
:100CA00031E0208360E171E0CA58DE4F8881C65789
:100CB000D140982D5DD6892B11F4C10137C12BDBB2
:100CC000813011F4F801808163019C2C961823DB9C
:100CD000882351F0F8018081F60181936F018D30F6
:100CE00019F0E415F50589F7CE0181599E4F2BDBEC
:100CF000F301E90DF11D20E031E020838F81823284
:100D000009F496C1FE01389620E02F5F819182326E
:100D1000E1F72F5FF701E20FF11D8081823269F068
:100D2000263910F00AC021E02F5FF701E20FF11D14
:100D30008081823211F02639B8F32F5FF701E20F7C
:100D4000F11D8081823279F0263910F00CC022E04A
:100D50002F5FF701E20FF11D8081823221F02639E9
:100D6000B9F730E021C081E0820FF701E80FF11DF3
:100D700090819232B1F08639B0F4FE01E356FF4F14
:100D800045E1420F9193382F321B8F5FD701A80F97
:100D9000B11D9C91923241F0841731F0863991F760
:100DA00003C030E001C030E0EDE9F0E0EC0FFD1FE2
:100DB000E30FF11D1082C958DE4F68817981C75752
:100DC000D140CE0183569F4FD3D56C01892B59F06A
:100DD0006EE372E0CE0183569F4FCAD5892B09F48A
:100DE0002CC1C101A3C0F30180818B3229F56EE3D0
:100DF00072E0CE0183569F4FBBD5892B09F022C1EB
:100E0000B301C958DE4F88819981C757D140B9D500
:100E10008AEC96E03ED5C958DE4F88819981C75744
:100E2000D14037D58FEB95E034D5F1E0C158DE4F96
:100E3000F883CF57D14079C063EE76E0C3017AD50D
:100E4000892BE9F46EE372E0CE0183569F4F90D573
:100E5000892B11F0CD28B9F581E3C558DE4FE88123
:100E6000F981CB57D140808386EE96E012D52F9A38
:100E7000F1E0C358DE4FF883CD57D14056C06DEF37
:100E800076E0C30157D5892BF1F46EE372E0CE0111
:100E900083569F4F6DD5892B19F0CD2809F045C099
:100EA00080E3C558DE4FE881F981CB57D14080837C
:100EB00081E097E0EED42F98F1E0C358DE4FF8833D
:100EC000CD57D14032C045E050E069E177E0C30141
:100ED0005FD5892B51F56EE372E0CE0183569F4FAB
:100EE00047D5892B11F54BE050E0C058DE4F6881A3
:100EF0007981C058D140C758DE4F88819981C95740
:100F0000D14054D58FE197E0C4D4C758DE4F8881D3
:100F10009981C957D140BDD48FEB95E0BAD421E077
:100F2000C258DE4F2883CE57D140C1013FEF231A6C
:100F3000330ACC58DE4FE881F981C457D140E81715
:100F4000F9070CF06BCEC258DE4FB880CE57D140B7
:100F5000C158DE4FF881CF57D140F1117BC011C08D
:100F6000F80161918F01C6018E0F9F1F71D58FE02F
:100F700097E20197F1F700C000000E151F0581F7F9
:100F80007EC0C258DE4F9881CE57D140992351F18F
:100F9000C758DE4FE880F980C957D140EBE0EE0E2C
:100FA000F11CC758DE4F08811981C957D1408FE124
:100FB00090E06C01C01AD10AF80161918F01C6015D
:100FC0008E0F9F1F45D58FE097E20197F1F700C084
:100FD00000000E151F0581F705C0C358DE4F1882AB
:100FE000CD57D140C358DE4F9881CD57D14099237A
:100FF00081F0C558DE4FE881F981CB57D14060813F
:101000008EE190E025D58FE097E20197F1F700C0DF
:101010000000BE016F547F4F86E397E0D5D98CE482
:1010200097E037D481E044C081E042C080E040C016
:101030008885823209F077CE25C0F30180818B321A
:1010400039F5DECE63EE76E0C30174D4892B09F462
:1010500003CF26C0C958DE4FE880F980C757D1407A
:10106000FDE0EF0EF11CC958DE4F08811981C7570A
:10107000D1408FE090E06C01C01AD10A71CFB1105D
:1010800087CFB0CF8985823209F061CE22E06BCE66
:1010900063EE76E0C3014ED4892B09F4DDCEEFCEAA
:1010A0006DEF76E0C30146D4892B09F4F9CE0BCF5E
:1010B000CF57DE4F0FB6F894DEBF0FBECDBFDF9126
:1010C000CF911F910F91FF90EF90DF90CF90BF9045
:1010D000AF909F908F907F906F905F904F903F90D8
:1010E0002F9008954F925F926F927F928F929F926E
:1010F000AF92BF92CF92DF92EF92FF920F931F9326
:10110000CF93DF93CDB7DEB7D2500FB6F894DEBFE2
:101110000FBECDBF4C015B013A012901FB010190DB
:101120000020E9F7EC50E617B1F06B012BE0C20E9E
:10113000D11C8B0180E290E07C01E61AF70AC7011E
:10114000800F911F7DD4F80181938F01EC15FD056F
:10115000B1F7F501138688E697E09BD3C50199D3D3
:101160008FEB95E096D3BE016F5F7F4F8DE492E0E9
:101170002BD960E171E0CE010196FAD3892B09F0F9
:1011800071C009EC10E0F801808180618083CE019C
:101190000196D9D88BE797E07CD386E792E09FD37E
:1011A000FFEF24E38CE0F15020408040E1F700C0E5
:1011B000000084E892E093D3C50191D386E287D3FF
:1011C000C4018DD38DE897E08AD3C30188D383E926
:1011D00097E085D3C20183D389EA92E080D386EB7E
:1011E00092E07DD3F801808180618083E1ECF0E0C2
:1011F00080818F7E808310E00F2EFEECEF2EF12C8D
:10120000F02D89D8882329F0F70110811432C9F70D
:101210002DC081D80091CE00E1ECF0E080818061AA
:101220008083143249F489E997E033D3C50131D37F
:101230008FEB95E02ED306C084EB97E02AD381EDA7
:1012400097E027D3013331F4F89481E08093670964
:10125000789415C0023341F4F89410926709789499
:1012600081E00DC080E00BC081E009C054D800913E
:10127000CE00E1ECF0E0808180618083D4CFDE5F3E
:101280000FB6F894DEBF0FBECDBFDF91CF911F9197
:101290000F91FF90EF90DF90CF90BF90AF909F9015
:1012A0008F907F906F905F904F9008953F924F92F4
:1012B0005F926F927F928F929F92AF92BF92CF92E6
:1012C000DF92EF92FF920F931F93CF93DF93CDB7EF
:1012D000DEB7D2500FB6F894DEBF0FBECDBFB82E2A
:1012E0004B012A01322E37010F2EF6E0FF2EF02D92
:1012F000B8DA813021F0FA94F110FACF25C0EA2C47
:10130000232D42E0BE016F5F7F4F8B2D0E94660050
:101310000F2EF6E0FF2EF02DC401ECDA813021F023
:10132000FA94F110F9CF10C016E09601A301B201B2
:10133000CE010196D7DE813029F01150B1F7FF249C
:10134000F39402C0FF24F3948F2DDE5F0FB6F89460
:10135000DEBF0FBECDBFDF91CF911F910F91FF90E8
:10136000EF90DF90CF90BF90AF909F908F907F9045
:101370006F905F904F903F9008952F923F924F92C1
:101380005F926F927F928F929F92AF92BF92CF9215
:10139000DF92EF92FF920F931F93CF93DF93CDB71E
:1013A000DEB7C758D1090FB6F894DEBF0FBECDBF68
:1013B0004C015B016A0180E3FB0180831182FA0129
:1013C0008083118212E001E07E01F7E4EF0EF11C50
:1013D0000F2EF5E13F2EF02D0F2EF2E24F2EFDE005
:1013E0005F2EFAE06F2E712CF02D242E16C0011105
:1013F00014C086EF97E04DD2BE016F5F7F4F8BE048
:1014000093E00E94E4012FEF84E39CE021508040B0
:101410009040E1F700C0000001E08FE098E039D291
:10142000BE016F5F7F4F8BE193E00E94E40160E1BA
:1014300071E0CE0101969CD2892B21F084E398E0E3
:1014400028D20BC180E598E024D28EE798E021D223
:10145000F7011082D7010D900020E9F71197E8E914
:10146000F8E0832D01900D928A95E1F7B401C70150
:1014700074D2F70101900020E9F731974082518240
:1014800062827382BE016F5F7F4FC7010E94E401D9
:1014900060E171E0CE0101966BD2892B21F08DEADB
:1014A00098E0F7D1DAC08EEC98E0F3D1C401F1D125
:1014B0008FEB95E0EED1BE016F5F7F4F8CE393E041
:1014C0000E94E40160E171E0CE01019651D2892BC6
:1014D00009F0D3C0BE016F5F7F4F8CE493E00E94A0
:1014E000E40162EE71E0CE01019642D2892B09F44B
:1014F000B4C0E9ECF0E0808180618083CE01019688
:101500000E94A30160E171E0CE01019631D2892BE6
:1015100009F0B3C087EE98E0BCD1BE016F5F7F4F8A
:101520008CE593E00E94E40162EE71E0CE01019649
:101530001FD2892B21F48AE099E0ABD18EC0E9EC6F
:10154000F0E0808180618083CE018D579F4F0E94A3
:10155000A30160E171E0CE018D579F4F09D2892B25
:1015600009F08BC089818C3209F47BC0FE01329670
:1015700080E08F5F91919C32E1F78F5FE1E0F0E0D6
:10158000EC0FFD1FE80FF11D90819C32B1F0863405
:1015900010F015C081E0EC2DFD2D91932E2F221916
:1015A0008F5FA1E0B0E0AC0FBD1FA80FB11D9C91F3
:1015B0009C3231F0863488F303C020E001C020E083
:1015C000F601E20FF11D108291E0980FE1E0F0E0EA
:1015D000EC0FFD1FE90FF11D20812C32B1F0963484
:1015E00018F015C081E092E0F5012193392F381BE6
:1015F0009F5FA1E0B0E0AC0FBD1FA90FB11D2C9102
:101600002C3231F0963489F703C030E001C030E06D
:10161000F501E30FF11D10828EE299E03AD181E5E8
:1016200099E037D1C50135D18FEB95E032D18BE50B
:1016300099E02FD1C6012DD18FEB95E02AD1BE01C3
:101640006F5F7F4F8BE093E00E94E40160E171E007
:10165000CE0101968DD1892B99F0115009F0C7CE9A
:101660000FC09A819C3209F095CFF60110822B8130
:101670002C3209F0B7CF30E0CBCF115009F0B9CE02
:10168000C957DF4F0FB6F894DEBF0FBECDBFDF9155
:10169000CF911F910F91FF90EF90DF90CF90BF906F
:1016A000AF909F908F907F906F905F904F903F9002
:1016B0002F900895CF93DF93CDB7DEB7C458D240B3
:1016C0000FB6F894DEBF0FBECDBF8AEF8AB98FEF99
:1016D00084B92E9A2AEA36EE86E991E0215030400C
:1016E00080409040D9F7000089E88A832F9ABBD0C8
:1016F000DED0EFECF7E03197F1F700C00000EFE645
:10170000F0E08081816080838FEC97E00197F1F7B2
:1017100000C0000078948EE190E092D18983EFE0E0
:10172000F7E23197F1F700C00000E1ECF0E08081D2
:10173000806180830E947F01E1E8F0E080818B7FFF
:1017400080837E01F3E0EF0EF11C00E210E0C8019F
:1017500077D1F70181937F010F5F1F4F0B32110586
:10176000B1F71E867E01F7E1EF0EF11C00E110E0FB
:10177000C80166D1F70181937F010F5F1F4F0D31C3
:101780001105B1F71CA2B12C912C90E03E01F2E0C2
:101790006F0E711C01C091E0809166098F5F80938C
:1017A00066098E3240F088E88A8382E38093660976
:1017B000913021F420C089E88A83FACFD12CBE0170
:1017C000675B7F4FCE018B960E94FF01F82EB3948A
:1017D0002AE02B1568F4E62C8E01075B1F4F292D9C
:1017E00042E0BE0169597F4F89810E946600BD2C8D
:1017F00031E0F312E4CFAE014A585D4FBE016959A2
:101800007D4FCE018B96B9DDDFD8982E0F2EF6E0F6
:10181000BF2EF02DAE014D5F5F4FBE01695E7F4F61
:10182000CE01019618D9BA94813011F0B110F2CFDF
:10183000AA80CE018A589D4F6C01FE01E959FD4FE7
:101840007F018E01075B1F4F292DAE014D5F5F4F5A
:10185000BE01655D7F4F898129DD81119CCF0E948A
:101860000E0490E099CF1092C50083E38093C400EA
:101870001092C00086E88093C20088E18093C10086
:101880000895E0ECF0E0908195FFFDCF8093C600D5
:101890000895CF93DF93EC018881882329F0219666
:1018A000F0DF89918111FCCFDF91CF9108951092E3
:1018B000CD0083E38093CC001092C800E9ECF0E007
:1018C000108286E88093CA0088E180830895E8EC5E
:1018D000F0E0908195FFFDCF8093CE000895CF93E7
:1018E000DF93EC018881882329F02196F0DF89912C
:1018F0008111FCCFDF91CF910895FC0188279927B2
:10190000E89421912032E9F3293010F02E30C8F309
:101910002B3239F02D3231F4689403C060D0820F3D
:10192000911D219120532A30C8F31EF49095819582
:101930009F4F0895FB01DC018D9181341CF08B35A4
:101940000CF4805E619161341CF06B350CF4605EC8
:10195000861B611189F3990B0895FB01DC010D9041
:101960000020E9F7119701900D920020E1F708950A
:10197000FB01DC018D91019080190110D9F3990BC5
:101980000895FB01DC0101900D920020E1F708951C
:10199000FB01DC014150504030F08D9101908019E5
:1019A00019F40020B9F7881B990B0895FB01DC019D
:1019B0004150504048F001900D920020C9F701C0FD
:1019C0001D9241505040E0F70895BB274A3031F452
:1019D000992322F4BDE2909581959F4F09C07AE04A
:1019E000979F902D879F802D910D11240895BB27DF
:1019F000FB015527AA27880F991FAA1FA41710F0CB
:101A0000A41B83955051B9F7A05DAA3308F0A95DD6
:101A1000A193009779F7B111B1931192CB0100C056
:101A2000DC01FC01672F71917723E1F7329704C045
:101A30007C916D9370836291AE17BF07C8F30895D0
:101A4000F999FECF92BD81BDF89A992780B5089586
:101A5000262FF999FECF92BD81BDF89A019700B467
:101A6000021639F01FBA20BD0FB6F894FA9AF99A07
:081A70000FBE0895F894FFCFAA
:101A78000000415445300D0A000041540D0A000091
:101A88004F4B000041542B43534D494E533F0D0AD1
:101A980000002B43534D494E533A20302C3100005F
:101AA80041542B435245473F0D0A00002B435245F2
:101AB800473A20302C3100002B435245473A20301A
:101AC8002C35000041542B4353504E3F0D0A000063
:101AD80048757463680000566F6461666F6E6500D0
:101AE80000566F6461666F6E6520494E000061693B
:101AF8007274656C000041697274656C000043651E
:101B08006C6C4F6E65000042534E4C000042534EC1
:101B18004C203347000052656C69616E63650000B4
:101B2800544154410000556E696E6F720000216483
:101B38006561000049646561000041542B434949CF
:101B480043520D0A000041542B43494653520D0A93
:101B580000004552524F52000041542B43504F57FA
:101B6800443D310D0A00002B43474154543A20307C
:101B780000002B43474154543A2031000041542B74
:101B8800434950534855540D0A00005348555420B2
:101B98004F4B000041542B4353510D0A0000415450
:101BA8002B43504D533D22534D220D0A00002B3933
:101BB8003139303231303235303339000041542B2D
:101BC80043495053544152543D22544350222C22ED
:101BD80035322E37342E3135312E3831222C2238F9
:101BE80030220D0A000041542B43495053454E44BE
:101BF8000D0A0000474554202F646174616C6F67BB
:101C080067696E672F77726974652E7068703F74A4
:101C180061626E616D653D000020485454502F315B
:101C28002E310D0A0000486F73743A35322E37345E
:101C38002E3135312E38310D0A4163636570743A9F
:101C4800202A2F2A0D0A4163636570742D4C616E3A
:101C580067756167653A20656E2D75730D0A436F68
:101C68006E6E656374696F6E3A204B6565702D41C1
:101C78006C6976650D0A0D0A1A000041542B534110
:101C88005042523D302C310D0A000041542B534133
:101C98005042523D332C312C22434F4E545950451B
:101CA800222C2247505253220D0A000041542B5334
:101CB800415042523D312C310D0A000041542B5302
:101CC800415042523D322C310D0A000041542B4301
:101CD800495047534D4C4F433D312C310D0A0000BC
:101CE8004665746368696E6720444154412E2E2E00
:101CF8000D0A00436F756E746572203D004461746F
:101D0800612052656369657665642E2E2E0D0A0082
:101D1800524553455454494E472E2E2E0D0A004E17
:101D28006F20526573706F6E73652E2E2E0D0A002C
:101D380052652D436865636B696E672E2E2E0D0AFA
:101D480000436865636B696E672053494D2E2E2EDC
:101D58000D0A005265636865636B696E672E2E2EE7
:101D68000D0A0053494D20436865636B6564204F35
:101D78004B2E2E2E0D0A00436865636B696E672033
:101D880053696D436172642E2E2E0D0A0053696DDE
:101D9800436172642050726573656E742E2E2E0D29
:101DA8000A00436865636B696E672053494D434178
:101DB800524420526567697374726174696F6E2E3C
:101DC8002E2E0D0A0053696D4361726420526567B7
:101DD80069737465726564204F4B2E2E2E0D0A00B0
:101DE80053494D206E6574776F726B2070726F76F1
:101DF800696465722E2E2E0041504E2E2E2E0061E3
:101E0800697274656C677072732E636F6D006273AC
:101E18006E6C656E65740072636F6D7761700074C7
:101E28006174612E646F636F6D6F2E696E74657275
:101E38006E657400756E696E6F72006973616665B0
:101E48000041504E206E6F7420666F756E642E2EA2
:101E58002E0D0A00536561726368696E67204750EA
:101E680052532E2E2E0D0A0041542B4347415454F1
:101E78003F0D0A00475052532072657475726E7395
:101E8800204552524F522E2E2E0D0A0047505253C3
:101E9800204F4B2E2E2E0D0A00436C6F73696E6710
:101EA800205044502053657474696E67732E2E2E2B
:101EB8000D0A0050445020636F6E6E656374696F3D
:101EC8006E206E6F7420636C6F7365642070726F20
:101ED8007065726C792E2E2E0D0A0052652D73686E
:101EE800757474696E672E2E2E0D0A0050445020AA
:101EF80053657474696E677320636C6F73656420CF
:101F080050726F7065726C792E2E2E0D0A00536513
:101F18007474696E672061706E20746F200041547C
:101F28002B435354543D2200222C22222C22220DD2
:101F38000A0041504E206E6F7420736574207072D1
:101F48006F7065726C792E2E2E0D0A0052652D73F6
:101F5800657474696E672041504E2E2E2E0D0A004E
:101F680041504E207365742070726F7065726C7981
:101F78002E2E2E0D0A00416C6C6F636174696E67BA
:101F88002044796E616D69632049502E2E2E0D0A0A
:101F98000044796E616D696320495020416C6C6F13
:101FA8006361746564207375636365737366756CC8
:101FB8006C792E2E2E0D0A00436865636B696E6777
:101FC800206E6F2E206F6620756E72656164206DBD
:101FD800657373616765732E2E2E0D0A006E6F2E62
:101FE800206F6620756E72656164206D657373611C
:101FF800676573206172652E2E0041542B434D474F
:10200800463D310D0A004D65737361676573206342
:102018006F6E76657274656420746F2052656164B2
:1020280061626C6520466F726D61742E2E2E0D0AEA
:102038000041542B434D47523D00437573746F6DF7
:102048006572204E6F2E206368616E676564207428
:102058006F20006F6E0053797374656D205475722C
:102068006E6564204F4E2E2E2E2E0D0A006F66666A
:102078000053797374656D205475726E6564204FD2
:1020880046462E2E2E2E0D0A00534E4F2B4500533A
:10209800657269616C204E6F2E206368616E67659A
:1020A8006420746F200041542B434D4744413D2226
:1020B80044454C2052454144220D0A0044656C6554
:1020C80074696E672052656164206D65737361671A
:1020D80065732E2E2E0D0A005374617274696E6733
:1020E80020434849502E2E2E0D0A0053656E646910
:1020F8006E6720446174612E2E2E0D0A002641342D
:10210800363D00264134373D0044617461205365F3
:102118006E74205375636365737366756C6C792090
:10212800746F2000446174612053656E7420726579
:102138007475726E73204552524F522E2E2E0D0A10
:1021480000436865636B20537472696E67206F7211
:102158002053494D434152442062616C616E63656E
:102168002E2E2E0D0A0044656163746976617469C8
:102178006E67204265617265722E2E2E0D0A0073FD
:10218800657474696E6720436F6E6E656374696FFA
:102198006E207479706520617320475052532E2E3B
:1021A8002E0D0A00526573706F6E73652072657428
:1021B80075726E73204552524F522E2E2E0D0A0004
:1021C800436F6E6E656374696F6E20547970652015
:1021D80073657420746F204750525320737563637E
:1021E80065737366756C6C792E2E2E0D0A00536517
:1021F8007474696E672041504E20666F72204C6F70
:10220800632E2E2E2E0D0A0041542B53415042525C
:102218003D332C312C2241504E222C220041504E6D
:10222800206E6F74207365742E2E2E72657475720D
:102238006E73204552524F522E2E2E0D0A004150D9
:102248004E20736574207375636365737366756C6C
:102258006C7920746F20004665746368696E672026
:102268004C6F636174696F6E20436F6F7264696E3F
:10227800617465732E2E2E0D0A004C6F63617469AC
:102288006F6E204E6F7420666F756E642E2E2E2E24
:102298005265747279696E672E2E2E0D0A004C6F86
:1022A800636174696F6E2046657463686564205362
:1022B80075636365737366756C6C792E2E2E0D0AC3
:1022C800004C617469747564653D004C6F6E676994
:0622D800747564653D0011
:00000001FF
