:1000000045C0000062C0000060C000005EC000008B
:100010005CC000005AC0000058C0000056C000007C
:1000200054C0000052C0000050C000004EC000008C
:100030004CC000004AC0000048C000003AC10000A7
:1000400044C0000042C0000040C000003EC00000AC
:100050003CC000003AC0000038C0000036C00000BC
:1000600034C0000032C0000030C000002EC00000CC
:100070002CC000002AC0000028C0000026C00000DC
:1000800024C0000022C0000020C0000011241FBEB8
:10009000CFEFD0E4DEBFCDBF18E0A0E0B1E0E8E8EC
:1000A000F6E100E00BBF02C007900D92AE31B10740
:1000B000D9F728E0AEE1B8E001C01D92AB3EB2072F
:1000C000E1F70E9477090C94420B9ACF8F929F928E
:1000D000BF92CF92DF92EF92FF920F931F93CF9335
:1000E000DF9300D000D0CDB7DEB789836B014A83A0
:1000F0002B83EC828BE093E00E945C0AE1ECF0E061
:1001000080818061808340E050E020E030E0E0ECDE
:10011000F0E00F2EF6EC8F2E912CF02DBB24B39433
:10012000E12CF12C90E080818823ECF7D4018C91B4
:10013000833229F44130510509F0A5C005C02F3F95
:10014000B1E03B070CF488C0E1ECF0E080818F7EE9
:100150008083F601E20FF31F1082F6010190002068
:10016000E9F73197EC19FD093A9778F47E0124E01C
:10017000E20EF11C9E012D5F3F4FAE014E5F5F4FBF
:10018000B6018C2F8F5FA2DF84C080911F08813061
:1001900009F07FC08C81883809F07BC044E450E0CE
:1001A00067E878E083E298E00E94DE0A44E450E0E9
:1001B000B60187E898E00E94DE0A83E298E00E9498
:1001C0005C0A8AE595E00E945C0A87E898E00E9454
:1001D0005C0A8AE595E00E945C0A8EE193E00E9449
:1001E0005C0A80912008805D0E94540A8AE595E0AF
:1001F0000E945C0A6FEF83ED90E361508040904075
:10020000E1F700C0000067E878E083E298E00E9430
:10021000C00A892B31F4809120088F5F80932008D9
:1002200002C01092200888E293E00E945C0A80914C
:100230002008893070F18BE393E00E945C0AAFEFF5
:10024000B1E12AE7A150B0402040E1F700C0000032
:10025000109220082E981DC04130510541F4B6017E
:10026000620F731FDB018C932F5F3F4F5CCF843293
:1002700009F059CF4115510509F055CF4B2D5E2D91
:100280002F2D392F50CF2F3FB1E03B070CF44BCF30
:100290005BCF0F900F900F900F90DF91CF911F9138
:1002A0000F91FF90EF90DF90CF90BF909F908F9035
:1002B00008951F920F920FB60F9211240BB60F9252
:1002C0008F93EF93FF93809121088F5F8A3018F40A
:1002D000809321080AC01092210881E080932208AF
:1002E000E1E8F0E080818B7F8083FF91EF918F9137
:1002F0000F900BBE0F900FBE0F901F90189510928D
:1003000022081092850010928400E1E8F0E08081DC
:10031000846080830895F3DFE8ECF0E008C08AE1B0
:100320008A95F1F700C080912208813051F08081D8
:100330008823ACF7E1E8F0E080818B7F808381E067
:10034000089580E00895EF92FF920F931F93CF934B
:100350007C01C0E30EEC10E003C0C92F01C0C92F1F
:10036000DADF81110CC08AE493E00E945C0A8BE51D
:1003700093E00E945C0AC0E00EEC10E007C0F801B8
:100380009081CD3051F79A3051F7F5CFC4DF8823F3
:1003900051F0F8019081F701EC0FF11D90839D3031
:1003A00011F0CF5FF3CFF701EC0FF11D80E091E08A
:1003B0008083E9ECF0E080818F7E8083CF911F9174
:1003C0000F91FF90EF9008950F931F93CF93DF93BA
:1003D000EC018B018881882331F021960E947A0AF2
:1003E00089918111FBCFE9ECF0E0908190619083DD
:1003F000C801A9DFDF91CF911F910F910895EF926E
:10040000FF920F931F93CF93DF93CDB7DEB7C85CF6
:10041000D1090FB6F894DEBF0FBECDBF7C018B01B2
:100420008CE693E00E945C0A82E091E00E94820ADE
:100430002FEF84E39CE0215080409040E1F700C022
:100440000000BE016F5F7F4F8AE091E0BDDF60E199
:1004500071E0CE0101960E94C00A892B51F08AE416
:1004600093E00E945C0A8EE793E00E945C0A80E0C1
:1004700067C18EE893E00E945C0A82EA93E00E94E2
:100480005C0ABE016F5F7F4F84E191E09DDF62E215
:1004900071E0CE0101960E94C00A892B51F08AE4D6
:1004A00093E00E945C0A8EE793E00E945C0A80E081
:1004B00047C188EB93E00E945C0A8DEC93E0FCD787
:1004C000BE016F5F7F4F80E391E07EDF6CE371E000
:1004D000CE0101960E94C00A892B81F068E471E088
:1004E000CE0101960E94C00A892B41F08AE493E074
:1004F000E3D78EE793E0E0D780E022C180EF93E07E
:10050000DBD7BE016F5F7F4F84E591E05DDF8981BE
:10051000823241F0FE01329620E02F5F81918232DB
:10052000E1F701C020E091E0920FFE01E90FF11D1B
:100530003181323299F0F8014FE1420F3193892F26
:10054000821B9F5FA1E0B0E0AC0FBD1FA90FB11DE2
:100550003C91323221F09413F1CF01C080E0F801D8
:10056000E80FF11D10828BE094E0A6D7C801A4D754
:100570008AE595E0A1D760E671E0C8010E94C00A53
:10058000892B99F487E797E7A7E7B0E0F701808325
:100590009183A283B38383E294E08ED7C7018CD783
:1005A0008AE595E089D781E0CBC067E671E0C801B4
:1005B000E7D7892B31F061E771E0C801CED7892BED
:1005C00099F487E797E7A7E7B0E0F7018083918385
:1005D000A283B38383E294E06FD7C7016DD78AE526
:1005E00095E06AD781E0ACC06EE771E0C801C8D77A
:1005F000892B31F066E871E0C801C2D7892B91F4EC
:100600008FE0EAE2F4E0D70101900D928A95E1F7DC
:1006100083E294E051D7C7014FD78AE595E04CD7E4
:1006200081E08EC06EE871E0C801AAD7892B61F025
:1006300067E971E0C801A4D7892B31F06DE971E059
:10064000C8019ED7892B91F489E0E9E3F4E0D70152
:1006500001900D928A95E1F783E294E02DD7C701CE
:100660002BD78AE595E028D781E06AC066EA71E079
:10067000C80186D7892B91F488E0E2E4F4E0D70141
:1006800001900D928A95E1F783E294E015D7C701B6
:1006900013D78AE595E010D781E052C060EB71E096
:1006A000C8016ED7892B91F485E1EAE4F4E0D70123
:1006B00001900D928A95E1F783E294E0FDD6C7019F
:1006C000FBD68AE595E0F8D681E03AC066EB71E0AA
:1006D000C80156D7892B91F487E0EFE5F4E0D70104
:1006E00001900D928A95E1F783E294E0E5D6C70187
:1006F000E3D68AE595E0E0D681E022C06EEB71E0BA
:10070000C8013ED7892B31F064EC71E0C80125D7D0
:10071000892B91F486E0E6E6F4E0D70101900D9292
:100720008A95E1F783E294E0C7D6C701C5D68AE58A
:1007300095E0C2D681E004C08CE694E0BDD680E0AE
:10074000C853DF4F0FB6F894DEBF0FBECDBFDF91A9
:10075000CF911F910F91FF90EF900895CF93DF936A
:10076000CDB7DEB764970FB6F894DEBF0FBECDBF2E
:10077000BE016F5F7F4F8AEC91E026DE60E171E0A1
:10078000CE010196FDD6892B81F4BE016F5F7F4FAC
:1007900086ED91E019DE62EE71E0CE010196F0D6B1
:1007A00021E0892B19F420E001C020E0822F64961B
:1007B0000FB6F894DEBF0FBECDBFDF91CF91089585
:1007C000CF93DF93CDB7DEB764970FB6F894DEBF53
:1007D0000FBECDBFBE016F5F7F4F89EE91E0F4DDAC
:1007E0002AEA36EE86E991E0215030408040904080
:1007F000D9F7000064960FB6F894DEBF0FBECDBFE8
:10080000DF91CF910895CF93DF93CDB7DEB7649793
:100810000FB6F894DEBF0FBECDBF8FE794E04CD685
:10082000BE016F5F7F4F83E994E0CEDD67EF71E03B
:10083000CE010196A5D6892B71F48FE994E03CD6C0
:100840002FEF81E19AE7215080409040E1F700C00E
:10085000000080E015C062E072E0CE01019690D603
:10086000892B69F4E9ECF0E080818061808387EB7B
:1008700094E022D6CE01019666DD81E001C080E0E1
:1008800064960FB6F894DEBF0FBECDBFDF91CF9157
:1008900008950F931F93CF93DF93CDB7DEB72A97B9
:1008A0000FB6F894DEBF0FBECDBF8C0184EC94E090
:1008B00003D6BE016F5F7F4F8DE092E085DD6BE177
:1008C00072E0CE0101965CD6892B41F08EED94E06A
:1008D000F3D586E095E0F0D580E039C087E195E07A
:1008E000EBD589E395E0E8D5C801E6D58AE595E042
:1008F000E3D5E9ECF0E090819061908389E495E0A4
:1009000001D6C801FFD583E595E0FCD5CE0101965F
:100910001ADD60E171E0CE01019632D6892B41F0FB
:100920008DE595E0C9D587E795E0C6D580E00FC095
:100930008BE895E0C1D581EA95E0BED50FDF813027
:1009400029F48CEB95E0B8D581E001C080E02A96CF
:100950000FB6F894DEBF0FBECDBFDF91CF911F91D0
:100960000F910895CF93DF93CDB7DEB7C05DD10966
:100970000FB6F894DEBF0FBECDBFBE01675F7F4FDD
:1009800084E292E021DDE9ECF0E080818061808307
:10099000CE010196D8DC8F858E8388898C3219F040
:1009A0008F83188601C01F82CE010696B9D58A3082
:1009B00068F0833669F096EF980F9A3058F09CEE05
:1009C000980F9A3048F08F3148F409C080E007C092
:1009D00080E005C081E003C082E001C083E0C05335
:1009E000DF4F0FB6F894DEBF0FBECDBFDF91CF91C2
:1009F00008952F923F924F925F926F927F928F92C3
:100A00009F92AF92BF92CF92DF92EF92FF920F939D
:100A10001F93CF93DF93CDB7DEB7C158D1400FB648
:100A2000F894DEBF0FBECDBFC558DE4F99838883D3
:100A3000CB57D140C958DE4F79836883C757D1401F
:100A4000C758DE4F59834883C957D14083EE95E09C
:100A500033D5BE016F547F4F8EE292E0B5DCE9ECF6
:100A6000F0E0808180618083CE0181599E4F6BDCF4
:100A7000CF54DF4F8881C15BD0408A3349F0FE01FB
:100A8000EE54FF4F80E08F5F91919A33E1F701C000
:100A900080E092E0980FE1EBF0E0EC0FFD1FE90F32
:100AA000F11D20812C32A9F0AE014F5F5F4F885FAE
:100AB000FA0121933E2F341B9F5FA1EBB0E0AC0FF6
:100AC000BD1FA90FB11D2C912C3221F09813F1CF2D
:100AD00001C030E0E1E0F0E0EC0FFD1FE30FF11D9D
:100AE0001082CE0101961CD5CC58DE4F99838883A5
:100AF000C457D14088E096E0DFD4CE010196DCD423
:100B00008AE595E0D9D4CC58DE4F28813981C45785
:100B1000D140232B09F456C2BE016F547F4F85E2AA
:100B200096E052DC60E171E0CE018F549F4F28D5F2
:100B3000892B09F049C281E396E0BED4CC58DE4F40
:100B400088819981C457D140181619060CF013C238
:100B50006894222421F8312CC358DE4F1882CD57D7
:100B6000D140C258DE4F1882CE57D140C158DE4F17
:100B70001882CF57D1400EEC10E07E0197E0E90ECD
:100B8000F11C5E01EEE9AE0EB11CCA58DE4FE882E0
:100B9000C657D1408F2C3E01FFEC6F0E711C2E0109
:100BA00020E9421A2EEF520AC3010496C058DE4FC4
:100BB00099838883C058D1404AE0BE016F5F7F4F60
:100BC000C10101970AD58CE596E09CD4CE0101962F
:100BD00099D48AE595E096D4E9ECF0E080818061D3
:100BE00080830F2EF0E3DF2EF02D03C0D82E01C03E
:100BF000D82E91DB811107C0CA58DE4FC880C65776
:100C0000D140D82C08C0F8018081FDE0DF12EECF82
:100C10008A3071F7F1CF9C2C9E187DDB882351F030
:100C2000F8018081F60181936F018D3019F0EA158A
:100C3000FB0589F7F701E90DF11D20E031E0208384
:100C400060E171E0CA58DE4F8881C657D140982DC7
:100C500097D4892B11F4C10137C15DDB813011F4C8
:100C6000F801808163019C2C961855DB882351F094
:100C7000F8018081F60181936F018D3019F0E41540
:100C8000F50589F7CE0181599E4F5DDBF301E90D32
:100C9000F11D20E031E020838F81823209F496C17A
:100CA000FE01389620E02F5F81918232E1F72F5FBD
:100CB000F701E20FF11D8081823269F0263910F0D0
:100CC0000AC021E02F5FF701E20FF11D808182321F
:100CD00011F02639B8F32F5FF701E20FF11D808183
:100CE000823279F0263910F00CC022E02F5FF70134
:100CF000E20FF11D8081823221F02639B9F730E010
:100D000021C081E0820FF701E80FF11D908192323E
:100D1000B1F08639B0F4FE01E356FF4F45E1420FD2
:100D20009193382F321B8F5FD701A80FB11D9C9173
:100D3000923241F0841731F0863991F703C030E0E8
:100D400001C030E0EDE9F0E0EC0FFD1FE30FF11D15
:100D50001082C958DE4F68817981C757D140CE01D2
:100D600083569F4F0DD46C01892B59F06EE372E0CE
:100D7000CE0183569F4F04D4892B09F42CC1C101A5
:100D8000A3C0F30180818B3229F56EE372E0CE01BE
:100D900083569F4FF5D3892B09F022C1B301C9585F
:100DA000DE4F88819981C757D140F3D385E696E01D
:100DB00083D3C958DE4F88819981C757D1407CD3EE
:100DC0008AE595E079D3F1E0C158DE4FF883CF573B
:100DD000D14079C06EE776E0C301BFD3892BE9F437
:100DE0006EE372E0CE0183569F4FCAD3892B11F078
:100DF000CD28B9F581E3C558DE4FE881F981CB579D
:100E0000D140808381E896E057D32F9AF1E0C35810
:100E1000DE4FF883CD57D14056C068E976E0C30174
:100E20009CD3892BF1F46EE372E0CE0183569F4F81
:100E3000A7D3892B19F0CD2809F045C080E3C55808
:100E4000DE4FE881F981CB57D14080838CE996E071
:100E500033D32F98F1E0C358DE4FF883CD57D140FC
:100E600032C045E050E064EB76E0C30199D3892BB2
:100E700051F56EE372E0CE0183569F4F81D3892BEB
:100E800011F54BE050E0C058DE4F68817981C058C1
:100E9000D140C758DE4F88819981C957D1408ED340
:100EA0008AEB96E009D3C758DE4F88819981C957EC
:100EB000D14002D38AE595E0FFD221E0C258DE4F4F
:100EC0002883CE57D140C1013FEF231A330ACC58B3
:100ED000DE4FE881F981C457D140E817F9070CF0DB
:100EE0006BCEC258DE4FB880CE57D140C158DE4FCE
:100EF000F881CF57D140F1117BC011C0F801619149
:100F00008F01C6018E0F9F1FABD38FE097E2019731
:100F1000F1F700C000000E151F0581F77EC0C25812
:100F2000DE4F9881CE57D140992351F1C758DE4FFB
:100F3000E880F980C957D140EBE0EE0EF11CC758AC
:100F4000DE4F08811981C957D1408FE190E06C01D3
:100F5000C01AD10AF80161918F01C6018E0F9F1F3F
:100F60007FD38FE097E20197F1F700C000000E15E4
:100F70001F0581F705C0C358DE4F1882CD57D140F9
:100F8000C358DE4F9881CD57D140992381F0C55881
:100F9000DE4FE881F981CB57D14060818EE190E04E
:100FA0005FD38FE097E20197F1F700C00000BE0128
:100FB0006F547F4F81ED96E007DA87EE96E07CD2A2
:100FC00081E044C081E042C080E040C08885823238
:100FD00009F077CE25C0F30180818B3239F5DECE62
:100FE0006EE776E0C301B9D2892B09F403CF26C09E
:100FF000C958DE4FE880F980C757D140FDE0EF0EB9
:10100000F11CC958DE4F08811981C757D1408FE0C4
:1010100090E06C01C01AD10A71CFB11087CFB0CF68
:101020008985823209F061CE22E06BCE6EE776E0F0
:10103000C30193D2892B09F4DDCEEFCE68E976E0C7
:10104000C3018BD2892B09F4F9CE0BCFCF57DE4FDA
:101050000FB6F894DEBF0FBECDBFDF91CF911F91C9
:101060000F91FF90EF90DF90CF90BF90AF909F9047
:101070008F907F906F905F904F903F902F9008954A
:101080008F929F92AF92BF92CF92DF92EF92FF9298
:101090000F931F93CF93DF93CDB7DEB7D2500FB628
:1010A000F894DEBF0FBECDBF4C015B01FB01019088
:1010B0000020E9F7EC50E617B1F06B012BE0C20E0F
:1010C000D11C8B0180E290E07C01E61AF70AC7018F
:1010D000800F911FBDD2F80181938F01EC15FD05A2
:1010E000B1F7F501138683E097E0E6D1C501E4D1BD
:1010F0008AE595E0E1D1BE016F5F7F4F8DE492E01C
:1011000063D960E171E0CE0101963AD2892B09F0F2
:1011100067C009EC10E0F801808180618083CE0116
:10112000019611D986E197E0C7D186E792E0EAD12E
:10113000FFEF24E38CE0F15020408040E1F700C055
:10114000000084E892E0DED1C501DCD186E2D2D194
:10115000C401D8D189EA92E0D5D186EB92E0D2D110
:10116000F801808180618083E1ECF0E080818F7EF6
:10117000808310E00F2EFEECEF2EF12CF02DCBD85B
:10118000882329F0F70110811432C9F72DC0C3D884
:101190000091CE00E1ECF0E0808180618083143228
:1011A00049F488E297E088D1C50186D18AE595E0C7
:1011B00083D106C083E497E07FD180E697E07CD1BD
:1011C000013331F4F89481E080931F08789415C0BE
:1011D000023341F4F89410921F08789481E00DC016
:1011E00080E00BC081E009C096D80091CE00E1EC10
:1011F000F0E0808180618083D4CFDE5F0FB6F89409
:10120000DEBF0FBECDBFDF91CF911F910F91FF9039
:10121000EF90DF90CF90BF90AF909F908F90089508
:101220003F924F925F926F927F928F929F92AF9276
:10123000BF92CF92DF92EF92FF920F931F93CF93C3
:10124000DF93CDB7DEB7D2500FB6F894DEBF0FBE36
:10125000CDBFB82E4B012A01322E37010F2EF6E0FA
:10126000FF2EF02DD0DA813021F0FA94F110FACF70
:1012700025C0EA2C232D42E0BE016F5F7F4F8B2DEE
:101280000E9466000F2EF6E0FF2EF02DC40101DB58
:10129000813021F0FA94F110F9CF10C016E09601D8
:1012A000A301B201CE010196EBDE813029F011508D
:1012B000B1F7FF24F39402C0FF24F3948F2DDE5F77
:1012C0000FB6F894DEBF0FBECDBFDF91CF911F9157
:1012D0000F91FF90EF90DF90CF90BF90AF909F90D5
:1012E0008F907F906F905F904F903F900895CF9335
:1012F000DF93CDB7DEB7C458D2400FB6F894DEBF47
:101300000FBECDBF8AEF8AB98FEF84B92E9A2AEA31
:1013100036EE86E991E02150304080409040D9F788
:10132000000089E88A832F9AB1D0D4D0EFECF7E09F
:101330003197F1F700C00000EFE6F0E080818160B6
:1013400080838FEC97E00197F1F700C0000078945C
:101350008EE190E07DD18983EFE0F7E23197F1F7FC
:1013600000C00000E1ECF0E08081806180830E9499
:101370007F01E1E8F0E080818B7F80837E01F3E0F4
:10138000EF0EF11C00E210E0C80162D1F701819379
:101390007F010F5F1F4F0B321105B1F71E867E01D3
:1013A000F7E1EF0EF11C00E110E0C80151D1F701A7
:1013B00081937F010F5F1F4F0D311105B1F71CA203
:1013C000B12C912C90E03E01F2E06F0E711C01C037
:1013D00091E080911E088F5F80931E088E3240F04E
:1013E00088E88A8382E380931E08913021F420C02C
:1013F00089E88A83FACFD12CBE01675B7F4FCE018B
:101400008B960E94FF01F82EB3942AE02B1568F406
:10141000E62C8E01075B1F4F292D42E0BE01695962
:101420007F4F89810E946600BD2C31E0F312E4CF2A
:1014300099DA982E0F2EF6E0BF2EF02DAE014D5FFB
:101440005F4FBE01695E7F4FCE010196D2DABA943A
:10145000813011F0B110F2CFAA80CE018A589D4F91
:101460006C01FE01E959FD4F7F018E01075B1F4FA3
:10147000292DAE014D5F5F4FBE01655D7F4F8981B4
:10148000CFDE8111A5CF9CD990E0A3CF1092C500EB
:1014900083E38093C4001092C00086E88093C2006A
:1014A00088E18093C1000895E0ECF0E0908195FF21
:1014B000FDCF8093C6000895CF93DF93EC01888120
:1014C000882329F02196F0DF89918111FCCFDF91EB
:1014D000CF9108951092CD0083E38093CC001092B9
:1014E000C800E9ECF0E0108286E88093CA0088E149
:1014F00080830895E8ECF0E0908195FFFDCF809324
:10150000CE000895CF93DF93EC018881882329F0E2
:101510002196F0DF89918111FCCFDF91CF91089561
:10152000FC0188279927E89421912032E9F329309A
:1015300010F02E30C8F32B3239F02D3231F468948C
:1015400003C055D0820F911D219120532A30C8F33A
:101550001EF4909581959F4F0895FB01DC018D91BC
:1015600081341CF08B350CF4805E619161341CF089
:101570006B350CF4605E861B611189F3990B08953D
:10158000FB01DC018D91019080190110D9F3990BB9
:101590000895FB01DC0101900D920020E1F7089510
:1015A000FB01DC014150504030F08D9101908019D9
:1015B00019F40020B9F7881B990B0895FB01DC0191
:1015C0004150504048F001900D920020C9F701C0F1
:1015D0001D9241505040E0F70895BB274A3031F446
:1015E000992322F4BDE2909581959F4F09C07AE03E
:1015F000979F902D879F802D910D11240895BB27D3
:10160000FB015527AA27880F991FAA1FA41710F0BE
:10161000A41B83955051B9F7A05DAA3308F0A95DCA
:10162000A193009779F7B111B1931192CB0100C04A
:10163000DC01FC01672F71917723E1F7329704C039
:101640007C916D9370836291AE17BF07C8F30895C4
:10165000F999FECF92BD81BDF89A992780B508957A
:10166000262FF999FECF92BD81BDF89A019700B45B
:10167000021639F01FBA20BD0FB6F894FA9AF99AFB
:081680000FBE0895F894FFCF9E
:101688000000415445300D0A000041540D0A000085
:101698004F4B000041542B43534D494E533F0D0AC5
:1016A80000002B43534D494E533A20302C31000053
:1016B80041542B435245473F0D0A00002B435245E6
:1016C800473A20302C3100002B435245473A20300E
:1016D8002C35000041542B4353504E3F0D0A000057
:1016E80048757463680000566F6461666F6E6500C4
:1016F80000566F6461666F6E6520494E000061692F
:101708007274656C000041697274656C0000436511
:101718006C6C4F6E65000042534E4C000042534EB5
:101728004C203347000052656C69616E63650000A8
:10173800544154410000556E696E6F720000216477
:101748006561000049646561000041542B434949C3
:1017580043520D0A000041542B43494653520D0A87
:1017680000004552524F52000041542B43504F57EE
:10177800443D310D0A00002B43474154543A203070
:1017880000002B43474154543A2031000041542B68
:10179800434950534855540D0A00005348555420A6
:1017A8004F4B000041542B4353510D0A0000415444
:1017B8002B43504D533D22534D220D0A00002B3927
:1017C8003139303231303235303339000041542B21
:1017D80043495053544152543D22544350222C22E1
:1017E80035322E37342E3135312E3831222C2238ED
:1017F80030220D0A000041542B43495053454E44B2
:101808000D0A0000505554202F646174616C6F6795
:1018180067696E672F77726974652E7068703F7498
:1018280061626E616D653D000020485454502F314F
:101838002E310D0A0000486F73743A35322E373452
:101848002E3135312E38310D0A4163636570743A93
:10185800202A2F2A0D0A4163636570742D4C616E2E
:1018680067756167653A20656E2D75730D0A436F5C
:101878006E6E656374696F6E3A204B6565702D41B5
:101888006C6976650D0A0D0A1A000046657463686E
:10189800696E6720444154412E2E2E0D0A00436F75
:1018A800756E746572203D004461746120526563F1
:1018B80069657665642E2E2E0D0A005245534554EF
:1018C80054494E472E2E2E0D0A004E6F2052657336
:1018D800706F6E73652E2E2E0D0A0052652D4368AB
:1018E80065636B696E672E2E2E0D0A00436865636B
:1018F8006B696E672053494D2E2E2E0D0A005265D6
:10190800636865636B696E672E2E2E0D0A00534956
:101918004D20436865636B6564204F4B2E2E2E0D5A
:101928000A00436865636B696E672053696D43619C
:1019380072642E2E2E0D0A0053696D436172642065
:1019480050726573656E742E2E2E0D0A00436865FD
:10195800636B696E672053494D4341524420526579
:1019680067697374726174696F6E2E2E2E0D0A008A
:1019780053696D4361726420526567697374657257
:101988006564204F4B2E2E2E0D0A0053494D206EB4
:101998006574776F726B2070726F76696465722EEA
:1019A8002E2E0041504E2E2E2E0061697274656CE9
:1019B800677072732E636F6D0062736E6C656E650F
:1019C800740072636F6D77617000746174612E6466
:1019D8006F636F6D6F2E696E7465726E65740075D6
:1019E8006E696E6F720069736166650041504E20C2
:1019F8006E6F7420666F756E642E2E2E0D0A00535E
:101A08006561726368696E6720475052532E2E2EA7
:101A18000D0A0041542B43474154543F0D0A0047D7
:101A28005052532072657475726E73204552524F2E
:101A3800522E2E2E0D0A0047505253204F4B2E2E59
:101A48002E0D0A00436C6F73696E67205044502056
:101A580053657474696E67732E2E2E0D0A005044F8
:101A68005020636F6E6E656374696F6E206E6F745D
:101A780020636C6F7365642070726F7065726C7927
:101A88002E2E2E0D0A0052652D7368757474696EBA
:101A9800672E2E2E0D0A0050445020536574746929
:101AA8006E677320636C6F7365642050726F706526
:101AB800726C792E2E2E0D0A0053657474696E6748
:101AC8002061706E20746F200041542B435354548E
:101AD8003D2200222C22222C22220D0A0041504EA7
:101AE800206E6F74207365742070726F7065726CED
:101AF800792E2E2E0D0A0052652D73657474696E49
:101B0800672041504E2E2E2E0D0A0041504E207354
:101B180065742070726F7065726C792E2E2E0D0AA6
:101B280000416C6C6F636174696E672044796E6103
:101B38006D69632049502E2E2E0D0A0044796E617E
:101B48006D696320495020416C6C6F6361746564F2
:101B5800207375636365737366756C6C792E2E2EAE
:101B68000D0A00436865636B696E67206E6F2E20EF
:101B78006F6620756E72656164206D657373616749
:101B880065732E2E2E0D0A006E6F2E206F6620753F
:101B98006E72656164206D6573736167657320613A
:101BA80072652E2E0041542B434D47463D310D0A98
:101BB800004D6573736167657320636F6E76657238
:101BC80074656420746F205265616461626C65207D
:101BD800466F726D61742E2E2E0D0A0041542B43F0
:101BE8004D47523D00437573746F6D6572204E6F9B
:101BF8002E206368616E67656420746F20006F6EC5
:101C08000053797374656D205475726E6564204F46
:101C18004E2E2E2E2E0D0A006F66660053797374B1
:101C2800656D205475726E6564204F46462E2E2EC3
:101C38002E0D0A00534E4F2B450053657269616C97
:101C4800204E6F2E206368616E67656420746F2074
:101C58000041542B434D4744413D2244454C2052BA
:101C6800454144220D0A0044656C6574696E67201D
:101C780052656164206D657373616765732E2E2EDE
:101C88000D0A005374617274696E672043484950A5
:101C98002E2E2E0D0A0053656E64696E672044610E
:101CA80074612E2E2E0D0A00446174612053656EF6
:101CB80074205375636365737366756C6C792074EF
:101CC8006F2000446174612053656E7420726574DE
:101CD80075726E73204552524F522E2E2E0D0A00E9
:101CE800436865636B20537472696E67206F722056
:101CF80053494D434152442062616C616E63652EC5
:101D08002E2E0D0A0041542B53415042523D302C87
:101D1800310D0A0041542B53415042523D332C316E
:101D28002C22434F4E54595045222C22475052538F
:101D3800220D0A004F4B0041542B53415042523D53
:101D4800332C312C2241504E222C220041542B534B
:101D5800415042523D312C310D0A0041542B534120
:101D68005042523D322C310D0A004552524F52001A
:101D780041542B43495047534D4C4F433D312C312F
:101D88000D0A002B43495047534D4C4F433A2030DE
:0E1D9800002B43495047534D4C4F433A000037
:00000001FF
